{
  "contracts/Token.sol": {
    "Token": {
      "abi": [
        {
          "inputs": [
            {
              "internalType": "string",
              "name": "_name",
              "type": "string"
            },
            {
              "internalType": "uint256",
              "name": "_cap",
              "type": "uint256"
            }
          ],
          "stateMutability": "nonpayable",
          "type": "constructor"
        },
        {
          "inputs": [],
          "name": "tokenCap",
          "outputs": [
            {
              "internalType": "uint256",
              "name": "",
              "type": "uint256"
            }
          ],
          "stateMutability": "view",
          "type": "function"
        },
        {
          "inputs": [],
          "name": "tokenName",
          "outputs": [
            {
              "internalType": "string",
              "name": "",
              "type": "string"
            }
          ],
          "stateMutability": "view",
          "type": "function"
        }
      ],
      "evm": {
        "bytecode": {
          "linkReferences": {},
          "object": "6080604052346101fb5761041b8038038061001981610200565b9283398101906040818303126101fb5780516001600160401b03908181116101fb57820190601f8481840112156101fb578251938285116101d157602094601f199461006a84830187168801610200565b978289528783830101116101fb579086929160005b8281106101e7575050826000918901015201519385519283116101d157600054936001948581811c911680156101c7575b838210146101b15783811161016b575b508192841160011461010a575050819293946000926100ff575b5050600019600383901b1c191690821b176000555b556040516101f590816102268239f35b0151905038806100da565b6000808052828120918516979193925b888210610154575050838596971061013b575b505050811b016000556100ef565b015160001960f88460031b161c1916905538808061012d565b80878596829496860151815501950193019061011a565b60008052826000208480870160051c8201928588106101a8575b0160051c019086905b82811061019c5750506100c0565b6000815501869061018e565b92508192610185565b634e487b7160e01b600052602260045260246000fd5b90607f16906100b0565b634e487b7160e01b600052604160045260246000fd5b8181018501518a820186015288940161007f565b600080fd5b6040519190601f01601f191682016001600160401b038111838210176101d15760405256fe60806040818152600436101561001457600080fd5b600091823560e01c9081636c02a93114610059575063dd54291b1461003857600080fd5b346100555781600319360112610055576020906001549051908152f35b5080fd5b919050346101bb57826003193601126101bb57829183549360019385851c948087169687156101b1575b602097888810811461019d57878652889291811561017e5750600114610129575b505082939450601f801994859203011682019482861067ffffffffffffffff8711176101155785929391838652818452845191828186015281955b8387106100fd5750508394508582601f949501015201168101030190f35b868101820151898801890152958101958895506100df565b634e487b7160e01b82526041600452602482fd5b83805290915082907f290decd9548b62a8d60345a988386fc84ba6bc95484008f6362f93160ef3e5635b87831061016b575094955085945083010185386100a4565b8054868401850152918301918101610153565b60ff191683870152509495869550151560051b840101905085386100a4565b634e487b7160e01b85526022600452602485fd5b95607f1695610083565b8280fdfea2646970667358221220e7778e7b58969e8514adda85f8e987001bdbcba29cc6f2e2d5525183554f051e64736f6c63430008140033",
          "opcodes": "PUSH1 0x80 PUSH1 0x40 MSTORE CALLVALUE PUSH2 0x1FB JUMPI PUSH2 0x41B DUP1 CODESIZE SUB DUP1 PUSH2 0x19 DUP2 PUSH2 0x200 JUMP JUMPDEST SWAP3 DUP4 CODECOPY DUP2 ADD SWAP1 PUSH1 0x40 DUP2 DUP4 SUB SLT PUSH2 0x1FB JUMPI DUP1 MLOAD PUSH1 0x1 PUSH1 0x1 PUSH1 0x40 SHL SUB SWAP1 DUP2 DUP2 GT PUSH2 0x1FB JUMPI DUP3 ADD SWAP1 PUSH1 0x1F DUP5 DUP2 DUP5 ADD SLT ISZERO PUSH2 0x1FB JUMPI DUP3 MLOAD SWAP4 DUP3 DUP6 GT PUSH2 0x1D1 JUMPI PUSH1 0x20 SWAP5 PUSH1 0x1F NOT SWAP5 PUSH2 0x6A DUP5 DUP4 ADD DUP8 AND DUP9 ADD PUSH2 0x200 JUMP JUMPDEST SWAP8 DUP3 DUP10 MSTORE DUP8 DUP4 DUP4 ADD ADD GT PUSH2 0x1FB JUMPI SWAP1 DUP7 SWAP3 SWAP2 PUSH1 0x0 JUMPDEST DUP3 DUP2 LT PUSH2 0x1E7 JUMPI POP POP DUP3 PUSH1 0x0 SWAP2 DUP10 ADD ADD MSTORE ADD MLOAD SWAP4 DUP6 MLOAD SWAP3 DUP4 GT PUSH2 0x1D1 JUMPI PUSH1 0x0 SLOAD SWAP4 PUSH1 0x1 SWAP5 DUP6 DUP2 DUP2 SHR SWAP2 AND DUP1 ISZERO PUSH2 0x1C7 JUMPI JUMPDEST DUP4 DUP3 LT EQ PUSH2 0x1B1 JUMPI DUP4 DUP2 GT PUSH2 0x16B JUMPI JUMPDEST POP DUP2 SWAP3 DUP5 GT PUSH1 0x1 EQ PUSH2 0x10A JUMPI POP POP DUP2 SWAP3 SWAP4 SWAP5 PUSH1 0x0 SWAP3 PUSH2 0xFF JUMPI JUMPDEST POP POP PUSH1 0x0 NOT PUSH1 0x3 DUP4 SWAP1 SHL SHR NOT AND SWAP1 DUP3 SHL OR PUSH1 0x0 SSTORE JUMPDEST SSTORE PUSH1 0x40 MLOAD PUSH2 0x1F5 SWAP1 DUP2 PUSH2 0x226 DUP3 CODECOPY RETURN JUMPDEST ADD MLOAD SWAP1 POP CODESIZE DUP1 PUSH2 0xDA JUMP JUMPDEST PUSH1 0x0 DUP1 DUP1 MSTORE DUP3 DUP2 KECCAK256 SWAP2 DUP6 AND SWAP8 SWAP2 SWAP4 SWAP3 JUMPDEST DUP9 DUP3 LT PUSH2 0x154 JUMPI POP POP DUP4 DUP6 SWAP7 SWAP8 LT PUSH2 0x13B JUMPI JUMPDEST POP POP POP DUP2 SHL ADD PUSH1 0x0 SSTORE PUSH2 0xEF JUMP JUMPDEST ADD MLOAD PUSH1 0x0 NOT PUSH1 0xF8 DUP5 PUSH1 0x3 SHL AND SHR NOT AND SWAP1 SSTORE CODESIZE DUP1 DUP1 PUSH2 0x12D JUMP JUMPDEST DUP1 DUP8 DUP6 SWAP7 DUP3 SWAP5 SWAP7 DUP7 ADD MLOAD DUP2 SSTORE ADD SWAP6 ADD SWAP4 ADD SWAP1 PUSH2 0x11A JUMP JUMPDEST PUSH1 0x0 DUP1 MSTORE DUP3 PUSH1 0x0 KECCAK256 DUP5 DUP1 DUP8 ADD PUSH1 0x5 SHR DUP3 ADD SWAP3 DUP6 DUP9 LT PUSH2 0x1A8 JUMPI JUMPDEST ADD PUSH1 0x5 SHR ADD SWAP1 DUP7 SWAP1 JUMPDEST DUP3 DUP2 LT PUSH2 0x19C JUMPI POP POP PUSH2 0xC0 JUMP JUMPDEST PUSH1 0x0 DUP2 SSTORE ADD DUP7 SWAP1 PUSH2 0x18E JUMP JUMPDEST SWAP3 POP DUP2 SWAP3 PUSH2 0x185 JUMP JUMPDEST PUSH4 0x4E487B71 PUSH1 0xE0 SHL PUSH1 0x0 MSTORE PUSH1 0x22 PUSH1 0x4 MSTORE PUSH1 0x24 PUSH1 0x0 REVERT JUMPDEST SWAP1 PUSH1 0x7F AND SWAP1 PUSH2 0xB0 JUMP JUMPDEST PUSH4 0x4E487B71 PUSH1 0xE0 SHL PUSH1 0x0 MSTORE PUSH1 0x41 PUSH1 0x4 MSTORE PUSH1 0x24 PUSH1 0x0 REVERT JUMPDEST DUP2 DUP2 ADD DUP6 ADD MLOAD DUP11 DUP3 ADD DUP7 ADD MSTORE DUP9 SWAP5 ADD PUSH2 0x7F JUMP JUMPDEST PUSH1 0x0 DUP1 REVERT JUMPDEST PUSH1 0x40 MLOAD SWAP2 SWAP1 PUSH1 0x1F ADD PUSH1 0x1F NOT AND DUP3 ADD PUSH1 0x1 PUSH1 0x1 PUSH1 0x40 SHL SUB DUP2 GT DUP4 DUP3 LT OR PUSH2 0x1D1 JUMPI PUSH1 0x40 MSTORE JUMP INVALID PUSH1 0x80 PUSH1 0x40 DUP2 DUP2 MSTORE PUSH1 0x4 CALLDATASIZE LT ISZERO PUSH2 0x14 JUMPI PUSH1 0x0 DUP1 REVERT JUMPDEST PUSH1 0x0 SWAP2 DUP3 CALLDATALOAD PUSH1 0xE0 SHR SWAP1 DUP2 PUSH4 0x6C02A931 EQ PUSH2 0x59 JUMPI POP PUSH4 0xDD54291B EQ PUSH2 0x38 JUMPI PUSH1 0x0 DUP1 REVERT JUMPDEST CALLVALUE PUSH2 0x55 JUMPI DUP2 PUSH1 0x3 NOT CALLDATASIZE ADD SLT PUSH2 0x55 JUMPI PUSH1 0x20 SWAP1 PUSH1 0x1 SLOAD SWAP1 MLOAD SWAP1 DUP2 MSTORE RETURN JUMPDEST POP DUP1 REVERT JUMPDEST SWAP2 SWAP1 POP CALLVALUE PUSH2 0x1BB JUMPI DUP3 PUSH1 0x3 NOT CALLDATASIZE ADD SLT PUSH2 0x1BB JUMPI DUP3 SWAP2 DUP4 SLOAD SWAP4 PUSH1 0x1 SWAP4 DUP6 DUP6 SHR SWAP5 DUP1 DUP8 AND SWAP7 DUP8 ISZERO PUSH2 0x1B1 JUMPI JUMPDEST PUSH1 0x20 SWAP8 DUP9 DUP9 LT DUP2 EQ PUSH2 0x19D JUMPI DUP8 DUP7 MSTORE DUP9 SWAP3 SWAP2 DUP2 ISZERO PUSH2 0x17E JUMPI POP PUSH1 0x1 EQ PUSH2 0x129 JUMPI JUMPDEST POP POP DUP3 SWAP4 SWAP5 POP PUSH1 0x1F DUP1 NOT SWAP5 DUP6 SWAP3 SUB ADD AND DUP3 ADD SWAP5 DUP3 DUP7 LT PUSH8 0xFFFFFFFFFFFFFFFF DUP8 GT OR PUSH2 0x115 JUMPI DUP6 SWAP3 SWAP4 SWAP2 DUP4 DUP7 MSTORE DUP2 DUP5 MSTORE DUP5 MLOAD SWAP2 DUP3 DUP2 DUP7 ADD MSTORE DUP2 SWAP6 JUMPDEST DUP4 DUP8 LT PUSH2 0xFD JUMPI POP POP DUP4 SWAP5 POP DUP6 DUP3 PUSH1 0x1F SWAP5 SWAP6 ADD ADD MSTORE ADD AND DUP2 ADD SUB ADD SWAP1 RETURN JUMPDEST DUP7 DUP2 ADD DUP3 ADD MLOAD DUP10 DUP9 ADD DUP10 ADD MSTORE SWAP6 DUP2 ADD SWAP6 DUP9 SWAP6 POP PUSH2 0xDF JUMP JUMPDEST PUSH4 0x4E487B71 PUSH1 0xE0 SHL DUP3 MSTORE PUSH1 0x41 PUSH1 0x4 MSTORE PUSH1 0x24 DUP3 REVERT JUMPDEST DUP4 DUP1 MSTORE SWAP1 SWAP2 POP DUP3 SWAP1 PUSH32 0x290DECD9548B62A8D60345A988386FC84BA6BC95484008F6362F93160EF3E563 JUMPDEST DUP8 DUP4 LT PUSH2 0x16B JUMPI POP SWAP5 SWAP6 POP DUP6 SWAP5 POP DUP4 ADD ADD DUP6 CODESIZE PUSH2 0xA4 JUMP JUMPDEST DUP1 SLOAD DUP7 DUP5 ADD DUP6 ADD MSTORE SWAP2 DUP4 ADD SWAP2 DUP2 ADD PUSH2 0x153 JUMP JUMPDEST PUSH1 0xFF NOT AND DUP4 DUP8 ADD MSTORE POP SWAP5 SWAP6 DUP7 SWAP6 POP ISZERO ISZERO PUSH1 0x5 SHL DUP5 ADD ADD SWAP1 POP DUP6 CODESIZE PUSH2 0xA4 JUMP JUMPDEST PUSH4 0x4E487B71 PUSH1 0xE0 SHL DUP6 MSTORE PUSH1 0x22 PUSH1 0x4 MSTORE PUSH1 0x24 DUP6 REVERT JUMPDEST SWAP6 PUSH1 0x7F AND SWAP6 PUSH2 0x83 JUMP JUMPDEST DUP3 DUP1 REVERT INVALID LOG2 PUSH5 0x6970667358 0x22 SLT KECCAK256 0xE7 PUSH24 0x8E7B58969E8514ADDA85F8E987001BDBCBA29CC6F2E2D552 MLOAD DUP4 SSTORE 0x4F SDIV 0x1E PUSH5 0x736F6C6343 STOP ADDMOD EQ STOP CALLER "
        },
        "methodIdentifiers": {
          "tokenCap()": "dd54291b",
          "tokenName()": "6c02a931"
        }
      }
    }
  }
}