{
  "_format": "hh-sol-artifact-1",
  "contractName": "Token",
  "sourceName": "contracts/Token.sol",
  "abi": [
    {
      "inputs": [
        {
          "internalType": "string",
          "name": "_name",
          "type": "string"
        },
        {
          "internalType": "uint256",
          "name": "_cap",
          "type": "uint256"
        }
      ],
      "stateMutability": "nonpayable",
      "type": "constructor"
    },
    {
      "inputs": [],
      "name": "tokenCap",
      "outputs": [
        {
          "internalType": "uint256",
          "name": "",
          "type": "uint256"
        }
      ],
      "stateMutability": "view",
      "type": "function"
    },
    {
      "inputs": [],
      "name": "tokenName",
      "outputs": [
        {
          "internalType": "string",
          "name": "",
          "type": "string"
        }
      ],
      "stateMutability": "view",
      "type": "function"
    }
  ],
  "bytecode": "0x6080604052346101fb5761041b8038038061001981610200565b9283398101906040818303126101fb5780516001600160401b03908181116101fb57820190601f8481840112156101fb578251938285116101d157602094601f199461006a84830187168801610200565b978289528783830101116101fb579086929160005b8281106101e7575050826000918901015201519385519283116101d157600054936001948581811c911680156101c7575b838210146101b15783811161016b575b508192841160011461010a575050819293946000926100ff575b5050600019600383901b1c191690821b176000555b556040516101f590816102268239f35b0151905038806100da565b6000808052828120918516979193925b888210610154575050838596971061013b575b505050811b016000556100ef565b015160001960f88460031b161c1916905538808061012d565b80878596829496860151815501950193019061011a565b60008052826000208480870160051c8201928588106101a8575b0160051c019086905b82811061019c5750506100c0565b6000815501869061018e565b92508192610185565b634e487b7160e01b600052602260045260246000fd5b90607f16906100b0565b634e487b7160e01b600052604160045260246000fd5b8181018501518a820186015288940161007f565b600080fd5b6040519190601f01601f191682016001600160401b038111838210176101d15760405256fe60806040818152600436101561001457600080fd5b600091823560e01c9081636c02a93114610059575063dd54291b1461003857600080fd5b346100555781600319360112610055576020906001549051908152f35b5080fd5b919050346101bb57826003193601126101bb57829183549360019385851c948087169687156101b1575b602097888810811461019d57878652889291811561017e5750600114610129575b505082939450601f801994859203011682019482861067ffffffffffffffff8711176101155785929391838652818452845191828186015281955b8387106100fd5750508394508582601f949501015201168101030190f35b868101820151898801890152958101958895506100df565b634e487b7160e01b82526041600452602482fd5b83805290915082907f290decd9548b62a8d60345a988386fc84ba6bc95484008f6362f93160ef3e5635b87831061016b575094955085945083010185386100a4565b8054868401850152918301918101610153565b60ff191683870152509495869550151560051b840101905085386100a4565b634e487b7160e01b85526022600452602485fd5b95607f1695610083565b8280fdfea2646970667358221220e7778e7b58969e8514adda85f8e987001bdbcba29cc6f2e2d5525183554f051e64736f6c63430008140033",
  "linkReferences": {},
  "deployedLinkReferences": {}
}